{
  "contractName": "MarketPlace",
  "abi": [
    {
      "inputs": [
        {
          "internalType": "contract IERC1155",
          "name": "token",
          "type": "address"
        }
      ],
      "stateMutability": "nonpayable",
      "type": "constructor"
    },
    {
      "stateMutability": "payable",
      "type": "receive",
      "payable": true
    },
    {
      "inputs": [
        {
          "internalType": "uint256",
          "name": "tokenId",
          "type": "uint256"
        }
      ],
      "name": "buyToken",
      "outputs": [],
      "stateMutability": "payable",
      "type": "function",
      "payable": true
    },
    {
      "inputs": [
        {
          "internalType": "address",
          "name": "operator",
          "type": "address"
        },
        {
          "internalType": "address",
          "name": "from",
          "type": "address"
        },
        {
          "internalType": "uint256",
          "name": "id",
          "type": "uint256"
        },
        {
          "internalType": "uint256",
          "name": "value",
          "type": "uint256"
        },
        {
          "internalType": "bytes",
          "name": "data",
          "type": "bytes"
        }
      ],
      "name": "onERC1155Received",
      "outputs": [
        {
          "internalType": "bytes4",
          "name": "",
          "type": "bytes4"
        }
      ],
      "stateMutability": "nonpayable",
      "type": "function"
    }
  ],
  "bytecode": "0x608060405234801561001057600080fd5b5060405161068a38038061068a83398181016040528101906100329190610124565b600073ffffffffffffffffffffffffffffffffffffffff168173ffffffffffffffffffffffffffffffffffffffff16141561006c57600080fd5b806000806101000a81548173ffffffffffffffffffffffffffffffffffffffff021916908373ffffffffffffffffffffffffffffffffffffffff160217905550655af3107a4000600160006001815260200190815260200160002081905550655af3107a4000600160006002815260200190815260200160002081905550655af3107a4000600160006003815260200190815260200160002081905550506101b1565b60008151905061011e8161019a565b92915050565b60006020828403121561013a57610139610195565b5b60006101488482850161010f565b91505092915050565b600061015c82610175565b9050919050565b600061016e82610151565b9050919050565b600073ffffffffffffffffffffffffffffffffffffffff82169050919050565b600080fd5b6101a381610163565b81146101ae57600080fd5b50565b6104ca806101c06000396000f3fe60806040526004361061002d5760003560e01c80632d296bf114610043578063f23a6e611461005f5761003e565b3661003e5761003c600161009c565b005b600080fd5b61005d600480360381019061005891906102c0565b61009c565b005b34801561006b57600080fd5b5061008660048036038101906100819190610226565b610177565b60405161009391906103a4565b60405180910390f35b6000349050600160008381526020019081526020016000205481101580156100d857506000600160008481526020019081526020016000205414155b6100e157600080fd5b60008054906101000a900473ffffffffffffffffffffffffffffffffffffffff1673ffffffffffffffffffffffffffffffffffffffff1663f242432a30338560016040518563ffffffff1660e01b8152600401610141949392919061034c565b600060405180830381600087803b15801561015b57600080fd5b505af115801561016f573d6000803e3d6000fd5b505050505050565b60007f47427ef61dbd3e2e27a18892b55898bc2c6fd3d753ed0308f558c2b929ed481890509695505050505050565b6000813590506101b581610466565b92915050565b60008083601f8401126101d1576101d061044f565b5b8235905067ffffffffffffffff8111156101ee576101ed61044a565b5b60208301915083600182028301111561020a57610209610454565b5b9250929050565b6000813590506102208161047d565b92915050565b60008060008060008060a087890312156102435761024261045e565b5b600061025189828a016101a6565b965050602061026289828a016101a6565b955050604061027389828a01610211565b945050606061028489828a01610211565b935050608087013567ffffffffffffffff8111156102a5576102a4610459565b5b6102b189828a016101bb565b92509250509295509295509295565b6000602082840312156102d6576102d561045e565b5b60006102e484828501610211565b91505092915050565b6102f6816103d0565b82525050565b610305816103e2565b82525050565b61031481610438565b82525050565b60006103276000836103bf565b915061033282610463565b600082019050919050565b6103468161042e565b82525050565b600060a08201905061036160008301876102ed565b61036e60208301866102ed565b61037b604083018561033d565b610388606083018461030b565b81810360808301526103998161031a565b905095945050505050565b60006020820190506103b960008301846102fc565b92915050565b600082825260208201905092915050565b60006103db8261040e565b9050919050565b60007fffffffff0000000000000000000000000000000000000000000000000000000082169050919050565b600073ffffffffffffffffffffffffffffffffffffffff82169050919050565b6000819050919050565b60006104438261042e565b9050919050565b600080fd5b600080fd5b600080fd5b600080fd5b600080fd5b50565b61046f816103d0565b811461047a57600080fd5b50565b6104868161042e565b811461049157600080fd5b5056fea26469706673582212204eaeae4f81ebd7e20f1b19c55dd3410be4963f2a3dd27f18e5f318287457539d64736f6c63430008060033",
  "immutableReferences": {},
  "source": "// SPDX-License-Identifier: MIT\npragma solidity ^0.8.0;\n\nimport \"../node_modules/@openzeppelin/contracts/token/ERC1155/IERC1155.sol\";\n\ncontract MarketPlace {\n\n    IERC1155 private _token;\n\n    mapping (uint256 => uint256) price;\n\n    constructor(IERC1155 token) {\n\n        require(address(token) != address(0));\n\n        _token = token;\n\n        price[1] = 100000000000000;\n        price[2] = 100000000000000;\n        price[3] = 100000000000000;\n\n    }\n\n    receive () external payable {\n        buyToken(1);\n    }\n\n    function buyToken(uint256 tokenId) public payable {\n\n        uint256 weiAmount = msg.value;\n        require(weiAmount >= price[tokenId] && price[tokenId] != 0);\n\n        _token.safeTransferFrom(address(this), msg.sender, tokenId, 1, \"\" );\n    }\n\n    function onERC1155Received(\n        address operator,\n        address from,\n        uint256 id,\n        uint256 value,\n        bytes calldata data\n    ) external returns (bytes4) {\n        return bytes4(keccak256(\"onERC1155Received(address, address, uint256, uint256, bytes)\"));\n    }\n\n\n}",
  "sourcePath": "/Users/kilianmongey/Desktop/truffle/erc-1155/contracts/MarketPlace.sol",
  "compiler": {
    "name": "solc",
    "version": "0.8.6+commit.11564f7e.Emscripten.clang"
  },
  "schemaVersion": "3.4.1",
  "updatedAt": "2021-07-07T20:06:41.390Z",
  "networkType": "ethereum",
  "devdoc": {
    "kind": "dev",
    "methods": {},
    "version": 1
  },
  "userdoc": {
    "kind": "user",
    "methods": {},
    "version": 1
  }
}